:020000040800F2
:10000000005000200916000851130008571300087B
:100010005D13000863130008691300080000000066
:100020000000000000000000000000006F13000846
:100030007B130008000000008713000893130008DA
:1000400051160008511600085116000851160008F4
:1000500051160008511600085116000851160008E4
:1000600051160008511600085116000851160008D4
:1000700051160008511600085116000851160008C4
:1000800051160008511600085116000851160008B4
:1000900051160008511600085116000851160008A4
:1000A0005116000851160008511600085116000894
:1000B000A11300085116000851160008B5130008D6
:1000C000C9130008511600085116000851160008FF
:1000D0005116000851160008511600085116000864
:1000E000DD1300085116000851160008000000003A
:1000F0000000000000000000000000000000000000
:0C01000000000000000000005FF808F1A3
:10010C0010B5054C237833B9044B13B10448AFF345
:10011C0000800123237010BD9C0000200000000013
:10012C00DC5A000808B5034B1BB103490348AFF375
:10013C00008008BD00000000A0000020DC5A000870
:10014C0080B400AF084B1B68084A1360084B1B684F
:10015C00084A1360084B02221A60084B03221A60EB
:10016C0000BFBD4680BC70470C0100200000002081
:10017C001401002004000020080000200C000020C6
:10018C0080B500AF844B1B68013B834A1360834BE3
:10019C001B68013B814A1360814B1B68042B2ED0DA
:1001AC00042B6DDC022B02D0032B4CD068E0012217
:1001BC004FF480617B4801F0FCFD0122102179484D
:1001CC0001F0F7FD784B794A92E80300186004338C
:1001DC001970714B1B68002B54DC754B1B686E4AF5
:1001EC0013606F4B03221A606F4B724A92E8030044
:1001FC0018600433198002330A0C1A7042E0012291
:10020C004FF48061674801F0D4FD0022102165484D
:10021C0001F0CFFD644B684A92E8030083E80300C9
:10022C005D4B1B68002B2FDC644B1B685A4A136018
:10023C005B4B02221A605C4B5C4A92E8030018602C
:10024C000433197020E000224FF48061554801F00E
:10025C00B0FD01221021534801F0ABFD4E4B1B6841
:10026C00002B13DC564B1B684B4A13604C4B04227F
:10027C001A604D4B504A92E8030083E8030005E0F6
:10028C0000BF04E000BF02E000BF00E000BF4D4B28
:10029C001B68042B2DD0042B74DC022B02D0032BF7
:1002AC004AD06FE0012220213E4801F082FD01225C
:1002BC0008213C4801F07DFD434B3C4A92E8030089
:1002CC00186004331970354B1B68002B5CDC384B01
:1002DC001B68324A13603B4B03221A603A4B354A77
:1002EC0092E8030018600433198002330A0C1A7068
:1002FC004AE0012220212B4801F05BFD002208215D
:10030C00284801F056FD304B2B4A92E8030083E855
:10031C000300224B1B68002B38DC284B1B681F4A40
:10032C001360284B02221A60274B204A92E80300E4
:10033C0018600433197029E000222021194801F0BB
:10034C0038FD01220821174801F033FD1E4B194AD4
:10035C0092E8030018600433198002330A0C1A70F7
:10036C000E4B1B68002B13DC154B1B680B4A1360E0
:10037C00144B04221A60144B0F4A92E8030083E8D2
:10038C00030005E000BF04E000BF02E000BF00E096
:10039C0000BF00BF80BD00BF000000200400002093
:1003AC0008000020000C0140B8000020F45A00089E
:1003BC0014010020FC5A0008045B00080C0100200A
:1003CC00100100200C000020CC00002080B400AFF5
:1003DC00104B1B68013B032B16D801A252F823F0DB
:1003EC00FD03000803040008090400080F040008BA
:1003FC00094B1B680AE0094B1B6807E0084B1B689C
:10040C0004E0084B1B6801E000BF00231846BD4602
:10041C0080BC70470801002000000020180100205B
:10042C00200100201C01002080B400AF104B1B6881
:10043C00013B032B16D801A252F823F059040008F3
:10044C005F040008650400086B040008094B1B6876
:10045C000AE0094B1B6807E0084B1B6804E0084BDB
:10046C001B6801E000BF00231846BD4680BC7047E6
:10047C0008010020040000201801002020010020A9
:10048C001C01002080B500AF7A4B1B68013B032B8D
:10049C0000F2E58001A252F823F000BFB904000875
:1004AC001105000883050008F705000801F092F813
:1004BC000346002B00F0D58000F0C6F9FFF786FF4D
:1004CC0003466D4A6D496E4804F088FE00210120F8
:1004DC0000F0D2F96A4800F0A1F9FFF7A5FF034636
:1004EC00684A6949694804F079FE0021002000F04F
:1004FC00C3F9664800F092F9642000F0ADFFFFF7F5
:10050C003FFEAEE001F070F80346002B00F0AB802C
:10051C0000F09AF95E4B1B681A465E49584804F085
:10052C005DFE0021012000F0A7F9554800F076F996
:10053C00504B1B681A465849544804F04FFE002192
:10054C00002000F099F9514800F068F9322000F0D1
:10055C00D1FF2021514801F044FC08214F4801F003
:10056C0040FC10214D4801F03CFC4FF480614B489D
:10057C0001F037FC77E001F037F80346002B74D01C
:10058C0000F062F9464B1B681A4646493C4804F099
:10059C0025FE0021012000F06FF9394800F03EF9EA
:1005AC00344B1B681A463C49384804F017FE0021AE
:1005BC00002000F061F9354800F030F9322000F0ED
:1005CC0099FF00222021354801F0F3FB0821334824
:1005DC0001F007FC00224FF48061304801F0E9FB88
:1005EC0010212E4801F0FDFB3FE000F0FDFF03461B
:1005FC00002B3CD000F028F92B4B1B681A462B49DA
:10060C001F4804F0EBFD0021012000F035F91C48D7
:10061C0000F004F9174B1B681A461F491B4804F0DD
:10062C00DDFD0021002000F027F9184800F0F6F855
:10063C00322000F05FFF00220821184801F0B9FBBE
:10064C002021164801F0CDFB00221021134801F0A7
:10065C00B0FB4FF48061114801F0C3FB07E000BF11
:10066C0006E000BF04E000BF02E000BF00E000BFF6
:10067C0000BF80BD08010020B80000200C5B000802
:10068C00E0000020CC000020185B0008F4000020E3
:10069C0018010020245B0008305B0008000C0140AE
:1006AC00200100203C5B00081C0100204C5B000872
:1006BC0080B400AF0C4B05221A600C4B02221A605E
:1006CC000B4B03221A60084B1B680A4A1360074B3A
:1006DC001B68094A1360064B1B68084A136000BF6D
:1006EC00BD4680BC704700BF0C01002010010020EB
:1006FC0014010020180100201C0100202001002002
:10070C0080B586B002AF0346FB71FB7923F00F0373
:10071C00FB73FB791B01BB73FB7B43F00C03DBB25C
:10072C003B72FB7B43F00803DBB27B72BB7B43F079
:10073C000C03DBB2BB72BB7B43F00803DBB2FB7276
:10074C0007F108026423009304234221034801F0BB
:10075C00DBFC00BF1037BD4680BD00BF5001002040
:10076C0080B586B002AF0346FB71FB7923F00F0313
:10077C00FB73FB791B01BB73FB7B43F00D03DBB2FB
:10078C003B72FB7B43F00903DBB27B72BB7B43F018
:10079C000D03DBB2BB72BB7B43F00903DBB2FB7214
:1007AC0007F108026423009304234221034801F05B
:1007BC00ABFC00BF1037BD4680BD00BF5001002010
:1007CC0080B500AF3320FFF79BFF3220FFF798FF77
:1007DC00322000F09BFF2820FFF792FF322000F020
:1007EC0095FF0120FFF78CFF322000F08FFF0620D1
:1007FC00FFF786FF322000F089FF0C20FFF780FF07
:10080C00322000F083FF0220FFF77AFF322000F045
:10081C007DFF8020FFF774FF00BF80BD80B582B0E4
:10082C0000AF786006E07B685A1C7A601B7818462B
:10083C00FFF796FF7B681B78002BF4D100BF00BF3D
:10084C000837BD4680BD000080B500AF00210020F8
:10085C0000F012F80748FFF7E1FF0021012000F03B
:10086C000BF80448FFF7DAFF0021002000F004F831
:10087C0000BF80BD5C5B000880B584B000AF7860C1
:10088C0039607B68012B08D17B68DAB23B68DBB23C
:10089C001344DBB27F33FB7308E03B68DBB24033BD
:1008AC00DBB25BB263F07F035BB2FB73FB7B18467E
:1008BC00FFF726FF00BF1037BD4680BD80B500AFE7
:1008CC00164B1B78002B02D0012B18D024E00020F3
:1008DC0000F052FA0346002B1BD0104B01221A7069
:1008EC000F4B1B6801330E4A13600D4B1B68042B16
:1008FC000FDD0B4B01221A60FFF722FC09E00020F0
:10090C0000F03AFA0346002B05D1044B00221A7072
:10091C0001E000BF00E000BF00BF80BD240100204B
:10092C000801002080B400AF1E4B1B68042B20D0A4
:10093C00042B2BDC022B02D0032B0DD026E01A4B00
:10094C001B680133184A1360174B1B68632B1FDDA0
:10095C00154B00221A601BE0144B1B680133134A21
:10096C001360124B1B68632B14DD104B00221A60B2
:10097C0010E00F4B1B6801330D4A13600C4B1B68C6
:10098C00632B09DD0A4B00221A6005E000BF04E06E
:10099C0000BF02E000BF00E000BF00BFBD4680BC4E
:1009AC00704700BF08010020180100202001002022
:1009BC001C01002080B483B000AF00237B602B4B64
:1009CC001B68042B34D0042B49DC022B02D0032BE4
:1009DC0017D044E0264B1A68264B1B68D31A7B6051
:1009EC00234B1B68234A1360234B1A687B68134400
:1009FC00214A1360214B1A687B6813441F4A136009
:100A0C002EE01E4B1A681C4B1B68D31A7B601B4BC9
:100A1C001B68194A1360174B1A687B681344154AF4
:100A2C001360134B1A687B681344114A136017E068
:100A3C00134B1A68134B1B68D31A7B60104B1B6843
:100A4C00104A13600B4B1A687B681344094A1360F5
:100A5C00074B1A687B681344054A136000E000BF1B
:100A6C0000BF0C37BD4680BC704700BF080100209A
:100A7C00180100200C01002014010020200100208E
:100A8C001C0100201001002080B500AF364B5B78B4
:100A9C00022B27D0022B3ADC002B02D0012B0CD0DE
:100AAC0035E0012000F068F90346002B31D02E4BC5
:100ABC0001225A70FFF736FF2BE0012000F05CF9A1
:100ACC000346002B02D1284B00225A70012000F063
:100ADC006DF90346002B1ED0234B02225A70FFF7F0
:100AEC0021FF18E0012000F047F90346002B02D14A
:100AFC001D4B00225A70012000F072F90346002BA6
:100B0C000BD0012000F086F9FFF70CFF05E000BFC9
:100B1C0004E000BF02E000BF00E000BF124B9B7876
:100B2C00002B02D0012B0FD01BE0022000F024F987
:100B3C000346002B12D00C4B01229A70FFF73AFFA0
:100B4C000A4B01221A6009E0022000F015F9034655
:100B5C00002B05D1044B00229A7001E000BF00E08D
:100B6C0000BF00BF80BD00BF240100200801002091
:100B7C0080B483B000AF00237B602AE0194A7B6805
:100B8C00134401221A70184A7B68134401221A700C
:100B9C00164A7B68134401221A70154A7B68134469
:100BAC0001221A70134A7B68134400221A70124AED
:100BBC007B68134400221A70104A7B68002122F8CB
:100BCC0013100F4A7B68002122F813107B68013345
:100BDC007B607B68022BD1DD00BF00BF0C37BD46AC
:100BEC0080BC7047280100202C010020300100201F
:100BFC0034010020380100203C010020400100207D
:100C0C004801002090B583B000AF0023FB7195E044
:100C1C00FA79FB794E49895C4E4AD154FA79FB79C1
:100C2C004D49895C4A4AD154FB794C4A52F83320DD
:100C3C00FB794A49DB000B449B88FC79194610462A
:100C4C0001F0A0F803461A46434B1A55FB79424A69
:100C5C00D25CFB793E49CB5C9A420DD1FB793D4A83
:100C6C00D25CFB793A49CB5C9A4205D1FA79FB7993
:100C7C003949895C3A4AD154FB79394AD35C002B07
:100C8C0047D100222021374801F093F80022082197
:100C9C00344801F08EF800224FF48061314801F0A5
:100CAC0088F8002210212F4801F083F8FB792E4A96
:100CBC0032F81330632B09D8FB792B4A32F8132006
:100CCC00013291B2284A22F8131034E0FB79274AFA
:100CDC000121D154FB79264A32F81330312B2AD812
:100CEC00FB79234A32F81320013291B2204A22F8C0
:100CFC001310FB791E4A32F81330312B1BD9FB79B8
:100D0C001B4A002122F81310FB791A4A0121D154F5
:100D1C0011E0FB79144A002122F81310FB79134AD5
:100D2C000021D154FB79124A002122F81310FB79CF
:100D3C00104A0021D154FB790133FB71FB79022B52
:100D4C007FF666AF00BF00BF0C37BD4690BD00BF3D
:100D5C0030010020340100202C0100201000002064
:100D6C0028010020000C0140400100203801002027
:100D7C00480100203C01002080B483B000AF034642
:100D8C00FB71FB79022B01D9002307E0FB79064AA2
:100D9C00D35C002B0CBF01230023DBB218460C37AD
:100DAC00BD4680BC704700BF2801002080B483B0D2
:100DBC0000AF0346FB71FB79022B01D9002307E03E
:100DCC00FB79064AD35C012B0CBF01230023DBB259
:100DDC0018460C37BD4680BC704700BF3801002058
:100DEC0080B483B000AF0346FB71FB79022B01D9B1
:100DFC00002307E0FB79064AD35C012B0CBF0123CF
:100E0C000023DBB218460C37BD4680BC704700BFD0
:100E1C003C01002080B483B000AF0346FB71FB792A
:100E2C00034A0021D15400BF0C37BD4680BC70472B
:100E3C003C01002080B500AF00F006FC00F02AF861
:100E4C0000F0E4F800F096F800F066F80F4803F0B4
:100E5C00F1FDFFF78DFEFFF72BFC642000F0FCFA90
:100E6C00012000F013FB5A2000F02AFB012000F0B7
:100E7C0041FBFFF7A5FC064B01221A60FFF71EFD94
:100E8C00FFF700FBFFF700FEF8E700BFA40100200E
:100E9C000801002080B590B000AF07F1180328229C
:100EAC000021184604F092F93B1D00221A605A608A
:100EBC009A60DA601A610223BB610123BB621023C2
:100ECC00FB6202237B630023BB634FF46013FB6361
:100EDC0007F11803184603F061F90346002B01D003
:100EEC0000F075F90F237B600223BB60A023FB602D
:100EFC004FF480633B6100237B613B1D022118464C
:100F0C0003F0CEFB0346002B01D000F060F900BFCC
:100F1C004037BD4680BD000080B500AF124B134A70
:100F2C001A60114B124A5A600F4B00229A600E4BFA
:100F3C000022DA600C4B4FF480421A610A4B0022FB
:100F4C005A61094B00229A61074B0022DA61064B69
:100F5C0000221A62044800F07FFF0346002B01D0E8
:100F6C0000F035F900BF80BD500100200054004056
:100F7C00A086010080B586B000AF07F108030022FF
:100F8C001A605A609A60DA603B4600221A605A6016
:100F9C001D4B4FF080421A601B4B41F63F725A605A
:100FAC00194B00229A60184B0922DA60164B00226A
:100FBC001A61154B00229A61134803F0EBFC0346AF
:100FCC00002B01D000F003F94FF48053BB6007F104
:100FDC00080319460C4803F06FFE0346002B01D0A2
:100FEC0000F0F5F800233B6000237B603B4619467C
:100FFC00054804F051F80346002B01D000F0E7F847
:10100C0000BF1837BD4680BDA401002080B588B054
:10101C0000AF07F1100300221A605A609A60DA6080
:10102C005B4B9B695A4A43F010039361584B9B6985
:10103C0003F01003FB60FB68554B9B69544A43F06B
:10104C0020039361524B9B6903F02003BB60BB6888
:10105C004F4B9B694E4A43F0040393614C4B9B6985
:10106C0003F004037B607B68494B9B69484A43F05F
:10107C0008039361464B9B6903F008033B603B6894
:10108C0000222021434800F094FE00224FF4876197
:10109C00414800F08EFE00224FF400713F4800F0F2
:1010AC0088FE4FF400533B613D4B7B610023BB61D9
:1010BC0007F110031946394800F0E0FC04233B61AA
:1010CC0002237B610323FB6107F1100319463148AE
:1010DC0000F0D4FC08233B6100237B610023BB613F
:1010EC0007F1100319462B4800F0C8FC20233B6184
:1010FC0001237B610023BB610223FB6107F1100319
:10110C001946244800F0BAFC4FF487633B61012375
:10111C007B610023BB610223FB6107F110031946BD
:10112C001D4800F0ABFC80233B6100237B61002356
:10113C00BB6107F110031946184800F09FFC4FF4EF
:10114C0000733B6101237B610023BB610223FB61C4
:10115C0007F110031946114800F090FC4FF440734E
:10116C003B6100237B610023BB6107F1100319462F
:10117C00084800F083FC00220021282000F0C1FB6D
:10118C00282000F0DAFB00BF2037BD4680BD00BF31
:10119C000010024000080140000C0140001001400A
:1011AC000000111080B582B000AF786000F0BCF97F
:1011BC00FFF728FD00BF0837BD4680BD80B483B063
:1011CC0000AF786000BF0C37BD4680BC704780B460
:1011DC0000AF72B600BFFEE780B485B000AF154B10
:1011EC009B69144A43F001039361124B9B6903F012
:1011FC000103BB60BB680F4BDB690E4A43F08053A5
:10120C00D3610C4BDB6903F080537B607B680A4B2A
:10121C005B68FB60FB6823F0E063FB60FB6843F0FA
:10122C000073FB60044AFB68536000BF1437BD4673
:10123C0080BC7047001002400000014080B58AB0AD
:10124C0000AF786007F1140300221A605A609A60AC
:10125C00DA607B681B68254A934242D1244B9B6918
:10126C00234A43F008039361214B9B6903F0080365
:10127C003B613B694FF440737B611223BB610323D9
:10128C003B6207F1140319461A4800F0F7FB1A4B9E
:10129C005B687B627B6A43F0E0637B627B6A43F052
:1012AC0002037B62144A7B6A5360114BDB69104A60
:1012BC0043F40013D3610E4BDB6903F40013FB60A2
:1012CC00FB68002200211F2000F01BFB1F2000F0F8
:1012DC0034FB00220021202000F013FB202000F022
:1012EC002CFB00BF2837BD4680BD00BF005400401A
:1012FC0000100240000C01400000014080B584B099
:10130C0000AF78607B681B68B3F1804F13D10C4B36
:10131C00DB690B4A43F00103D361094BDB6903F032
:10132C000103FB60FB68002200211C2000F0E9FA9D
:10133C001C2000F002FB00BF1037BD4680BD00BF73
:10134C000010024080B400AFFEE780B400AFFEE7AF
:10135C0080B400AFFEE780B400AFFEE780B400AF0E
:10136C00FEE780B400AF00BFBD4680BC704780B4C0
:10137C0000AF00BFBD4680BC704780B400AF00BF5B
:10138C00BD4680BC704780B500AF00F0A3F900BF2C
:10139C0080BD000080B500AF024803F09DFB00BF8C
:1013AC0080BD00BFA401002080B500AF024800F052
:1013BC00A9FF00BF80BD00BF5001002080B500AF69
:1013CC00024801F010F900BF80BD00BF50010020A1
:1013DC0080B500AF4FF4005000F01CFD00BF80BD85
:1013EC0080B586B000AF7860144A154BD31A7B6178
:1013FC007B693B61134B1B68002B02D1114B124ACA
:10140C001A60104B1A687B6813443A699A4207D2E7
:10141C0003F0B2FE03460C221A604FF0FF3309E0D2
:10142C00084B1B68FB60074B1A687B681344054A22
:10143C001360FB6818461837BD4680BD005000206D
:10144C0000040000EC0100202802002080B400AF52
:10145C0000BFBD4680BC704780B483B000AF7860DD
:10146C00074B1B687A6892FBF3F3064A1360064B32
:10147C0000221A6000BF0C37BD4680BC704700BF0D
:10148C002C000020F0010020F401002080B483B077
:10149C0000AF7860074B1B687A6892FBF3F3064A3F
:1014AC001360064B00221A6000BF0C37BD4680BC8F
:1014BC00704700BF2C000020F8010020FC01002028
:1014CC0080B483B000AF7860074B1B687A6892FBDE
:1014DC00F3F3064A1360064B00221A6000BF0C3768
:1014EC00BD4680BC704700BF2C00002000020020CD
:1014FC000402002080B483B000AF7860074B1B68F7
:10150C007A6892FBF3F3064A1360064B00221A60CA
:10151C0000BF0C37BD4680BC704700BF2C000020BC
:10152C00080200200C02002080B400AF214B1B6885
:10153C00002B0BDD1F4B1B68013B1E4A13601D4B20
:10154C001B68002B02D11C4B01221A601B4B1B6821
:10155C00002B0BDD194B1B68013B184A1360174B12
:10156C001B68002B02D1164B01221A60154B1B680D
:10157C00002B0BDD134B1B68013B124A1360114B04
:10158C001B68002B02D1104B01221A600F4B1B68F9
:10159C00002B0BDD0D4B1B68013B0C4A13600B4BF6
:1015AC001B68002B02D10A4B01221A6000BFBD46FA
:1015BC0080BC7047F0010020F4010020F8010020ED
:1015CC00FC01002000020020040200200802002080
:1015DC000C02002080B400AF024B1B681846BD46BD
:1015EC0080BC7047F401002080B400AF024B1B6834
:1015FC001846BD4680BC70470C020020FFF726FF42
:10160C000B480C490C4A002302E0D458C450043354
:10161C00C4188C42F9D3094A094C002301E0136029
:10162C000432A242FBD303F0ADFDFFF703FC70477D
:10163C00000000209C000020D85B00089C000020CB
:10164C0024020020FEE7000080B500AF084B1B68A9
:10165C00074A43F010031360032000F047F9002001
:10166C0000F008F8FFF7B8FD0023184680BD00BF56
:10167C000020024080B582B000AF7860124B1A682F
:10168C00124B1B7819464FF47A73B3FBF1F3B2FB90
:10169C00F3F3184600F05FF90346002B01D0012349
:1016AC000EE07B680F2B0AD8002279684FF0FF30D0
:1016BC0000F027F9064A7B681360002300E0012341
:1016CC0018460837BD4680BD280000203400002095
:1016DC003000002080B400AF054B1B781A46054B38
:1016EC001B681344034A136000BFBD4680BC70479F
:1016FC00340000201002002080B400AF024B1B68A5
:10170C001846BD4680BC70471002002080B584B0DE
:10171C0000AF7860FFF7F0FFB8607B68FB60FB6898
:10172C00B3F1FF3F05D00A4B1B781A46FB681344F4
:10173C00FB6000BFFFF7E0FF0246BB68D31AFA68F4
:10174C009A42F7D800BF00BF1037BD4680BD00BF1E
:10175C003400002080B485B000AF78607B6803F063
:10176C000703FB600C4BDB68BB60BA684FF6FF03EA
:10177C001340BB60FB681A02BB68134343F0BF63A2
:10178C0043F40033BB60044ABB68D36000BF14371A
:10179C00BD4680BC704700BF00ED00E080B400AFD8
:1017AC00044BDB681B0A03F007031846BD4680BCDC
:1017BC00704700BF00ED00E080B483B000AF03467B
:1017CC00FB7197F90730002B0BDBFB7903F01F0241
:1017DC00064997F907305B09012000FA02F241F83B
:1017EC00232000BF0C37BD4680BC704700E100E0F1
:1017FC0080B483B000AF03463960FB7197F90730B2
:10180C00002B0ADB3B68DAB20C4997F9073012015E
:10181C00D2B20B4483F800230AE03B68DAB20849E1
:10182C00FB7903F00F03043B1201D2B20B441A767E
:10183C0000BF0C37BD4680BC704700BF00E100E024
:10184C0000ED00E080B489B000AFF860B9607A6058
:10185C00FB6803F00703FB61FB69C3F10703042B6F
:10186C0028BF0423BB61FB690433062B02D9FB6937
:10187C00033B00E000237B614FF0FF32BB6902FAAF
:10188C0003F3DA43BB681A407B699A404FF0FF318F
:10189C007B6901FA03F3D9437B680B401343184669
:1018AC002437BD4680BC704780B582B000AF7860ED
:1018BC007B68013BB3F1807F01D301230FE00A4A1F
:1018CC007B68013B53600F214FF0FF30FFF790FF17
:1018DC00054B00229A60044B07221A60002318461D
:1018EC000837BD4680BD00BF10E000E080B582B077
:1018FC0000AF78607868FFF72DFF00BF0837BD4652
:10190C0080BD80B586B000AF0346B9607A60FB73CA
:10191C0000237B61FFF742FF78617A68B9687869C8
:10192C00FFF790FF024697F90F3011461846FFF764
:10193C005FFF00BF1837BD4680BD80B582B000AFD9
:10194C000346FB7197F907301846FFF735FF00BFC8
:10195C000837BD4680BD80B582B000AF786078682E
:10196C00FFF7A2FF034618460837BD4680BD0000AE
:10197C0080B584B000AF78600023FB737B6893F86C
:10198C002130DBB2022B05D07B6804229A63012341
:10199C00FB7351E07B681B681A687B681B6822F03C
:1019AC000E021A607B681B681A687B681B6822F041
:1019BC0001021A607B681B68224A934229D07B681B
:1019CC001B68214A934222D07B681B681F4A9342B2
:1019DC001AD07B681B681E4A934212D07B681B6826
:1019EC001C4A93420AD07B681B681B4A934202D163
:1019FC004FF480130EE04FF080730BE04FF4803304
:101A0C0008E04FF4805305E04FF4807302E010239C
:101A1C0000E00123114A53607B68012283F82120E6
:101A2C007B68002283F820207B685B6B002B03D043
:101A3C007B685B6B78689847FB7B18461037BD4614
:101A4C0080BD00BF080002401C0002403000024074
:101A5C0044000240580002406C000240000002406A
:101A6C0080B483B000AF78607B6893F82130DBB230
:101A7C0018460C37BD4680BC7047000080B48BB054
:101A8C0000AF7860396000237B6200233B6269E120
:101A9C0001227B6A02FA03F3FB613B681B68FA695B
:101AAC001340BB61BA69FB699A4240F058813B68AC
:101ABC005B689A4A93425ED0984A934275D8984A8A
:101ACC00934258D0964A93426FD8964A934252D03A
:101ADC00944A934269D8944A93424CD0924A934286
:101AEC0063D8924A934246D0904A93425DD8122BC7
:101AFC002AD8122B59D801A252F823F0831B0008C4
:101B0C005D1B00086F1B0008B11B0008B71B000809
:101B1C00B71B0008B71B0008B71B0008B71B000851
:101B2C00B71B0008B71B0008B71B0008B71B000841
:101B3C00B71B0008B71B0008B71B0008B71B000831
:101B4C00651B0008791B0008794A934213D02CE0DE
:101B5C003B68DB683B6229E03B68DB6804333B6233
:101B6C0024E03B68DB6808333B621FE03B68DB68C2
:101B7C000C333B621AE03B689B68002B02D10423B8
:101B8C003B6213E03B689B68012B05D108233B6249
:101B9C007B68FA691A6109E008233B627B68FA6981
:101BAC005A6103E000233B6200E000BFBB69FF2BDE
:101BBC0001D87B6801E07B6804337B61BB69FF2B38
:101BCC0002D87B6A9B0002E07B6A083B9B003B616E
:101BDC007B691A680F213B6901FA03F3DB431A4056
:101BEC00396A3B6901FA03F31A437B691A603B6853
:101BFC005B6803F08053002B00F0B1804D4B9B6968
:101C0C004C4A43F0010393614A4B9B6903F0010377
:101C1C00BB60BB68484A7B6A9B08023352F823308E
:101C2C00FB607B6A03F003039B000F2202FA03F3B1
:101C3C00DB43FA681340FB607B68404A934213D045
:101C4C007B683F4A93420DD07B683E4A934207D053
:101C5C007B683D4A934201D1032306E0042304E050
:101C6C00022302E0012300E000237A6A02F003025F
:101C7C0092009340FA681343FB602F497B6A9B08E0
:101C8C000233FA6841F823203B685B6803F4801345
:101C9C00002B06D02D4B9A682C49BB6913438B60E3
:101CAC0006E02A4B9A68BB69DB43284913408B60DA
:101CBC003B685B6803F40013002B06D0234BDA68F7
:101CCC002249BB691343CB6006E0204BDA68BB6941
:101CDC00DB431E491340CB603B685B6803F4003365
:101CEC00002B06D0194B5A681849BB6913434B603B
:101CFC0006E0164B5A68BB69DB43144913404B6032
:101D0C003B685B6803F48033002B21D00F4B1A68BF
:101D1C000E49BB6913430B6021E000BF0000321079
:101D2C0000003110000022100000211000001210E1
:101D3C00000011100010024000000140000801409A
:101D4C00000C01400010014000140140000401404F
:101D5C000B4B1A68BB69DB43094913400B607B6A68
:101D6C0001337B623B681A687B6A22FA03F3002B0F
:101D7C007FF48EAE00BF00BF2C37BD4680BC7047D1
:101D8C000004014080B485B000AF78600B467B80C6
:101D9C007B689A687B881340002B02D00123FB736D
:101DAC0001E00023FB73FB7B18461437BD4680BC57
:101DBC00704780B483B000AF78600B467B801346CD
:101DCC007B707B78002B03D07A887B681A6103E0E8
:101DDC007B881A047B681A6100BF0C37BD4680BC37
:101DEC00704780B485B000AF78600B467B807B6811
:101DFC00DB68FB607A88FB6813401A04FB68D943E4
:101E0C007B880B401A437B681A6100BF1437BD46B0
:101E1C0080BC704780B582B000AF0346FB80084B96
:101E2C005A69FB881340002B06D0054AFB88536186
:101E3C00FB88184600F006F800BF0837BD4680BD89
:101E4C000004014080B483B000AF0346FB8000BFA8
:101E5C000C37BD4680BC704780B584B000AF78604D
:101E6C007B68002B01D101232BE17B6893F83D307B
:101E7C00DBB2002B06D17B68002283F83C2078680B
:101E8C00FFF7DCF97B68242283F83D207B681B6814
:101E9C001A687B681B6822F001021A607B681B6859
:101EAC001A687B681B6842F400421A607B681B68E6
:101EBC001A687B681B6822F400421A6002F038FD35
:101ECC00F8607B685B68814A934207D8FB68804A5C
:101EDC00934294BF01230023DBB206E0FB687D4AEA
:101EEC00934294BF01230023DBB2002B01D00123CA
:101EFC00E7E0FB68784AA2FB03239B0CBB607B6882
:101F0C001B685B6823F03F017B681B68BA680A4357
:101F1C005A607B681B681B6A23F03F017B685B6817
:101F2C006A4A934202D8BB68013309E0BB684FF49C
:101F3C00967202FB03F3694AA2FB03239B0901334C
:101F4C007A6812680B4313627B681B68DB6923F4A5
:101F5C004F4222F0FF027B685B685C498B4219D8C8
:101F6C00FB68591E7B685B685B00B1FBF3F3591C83
:101F7C0040F6FC730B40002B0AD0FB68591E7B68A3
:101F8C005B685B00B1FBF3F30133C3F30B0351E06C
:101F9C0004234FE07B689B68002B11D1FB68581E13
:101FAC007B6859680B465B000B44B0FBF3F30133C1
:101FBC00C3F30B03002B0CBF01230023DBB212E095
:101FCC00FB68581E7B6859680B469B000B449900B4
:101FDC000B44B0FBF3F30133C3F30B03002B0CBF27
:101FEC0001230023DBB2002B01D0012322E07B680C
:101FFC009B68002B0ED1FB68581E7B6859680B46FA
:10200C005B000B44B0FBF3F30133C3F30B0343F45A
:10201C0000430FE0FB68581E7B6859680B469B0019
:10202C000B4499000B44B0FBF3F30133C3F30B03E4
:10203C0043F44043796809681343CB617B681B68A0
:10204C001B6823F0C0017B68DA697B681B6A1A4342
:10205C007B681B680A431A607B681B689B6823F4C7
:10206C00034323F0FF037A6811697A68D26811433D
:10207C007A6812680B4393607B681B68DB6823F0FB
:10208C00FF017B685A697B689B691A437B681B68F4
:10209C000A43DA607B681B681A687B681B6842F02D
:1020AC0001021A607B6800221A647B68202283F884
:1020BC003D207B6800221A637B68002283F83E2057
:1020CC00002318461037BD4680BD00BFA086010016
:1020DC007F841E00FF083D0083DE1B43D34D62103E
:1020EC0080B483B000AF78607B681B685B6903F0D9
:1020FC008003802B03D17B681B6800221A6100BF10
:10210C000C37BD4680BC704780B588B002AFF86014
:10211C007A601A460B467B8113463B81FFF7ECFA3B
:10212C007861FB6893F83D30DBB2202B40F0E08007
:10213C007B690093192301227049F86801F00AFEAB
:10214C000346002B01D00223D3E0FB6893F83C300C
:10215C00012B01D10223CCE0FB68012283F83C2047
:10216C00FB681B681B6803F00103012B07D0FB689D
:10217C001B681A68FB681B6842F001021A60FB6856
:10218C001B681A68FB681B6822F400621A60FB6803
:10219C00212283F83D20FB68102283F83E20FB6847
:1021AC0000221A64FB687A685A62FB683A895A857D
:1021BC00FB685B8D9AB2FB681A85FB68504ADA6241
:1021CC0079897B693A6AF86801F09AFC0346002B1E
:1021DC0001D001238DE000233B61FB681B685B6928
:1021EC003B61FB681B689B693B613B6966E07A69F4
:1021FC00396AF86801F0C8FE0346002B0DD0FB6865
:10220C001B6C042B07D1FB681B681A68FB681B68E6
:10221C0042F400721A6001236BE0FB685B6A1A7867
:10222C00FB681B681A61FB685B6A5A1CFB685A6284
:10223C00FB685B8D9BB2013B9AB2FB685A85FB68CD
:10224C001B8D013B9AB2FB681A85FB681B685B69A6
:10225C0003F00403042B1BD1FB681B8D002B17D040
:10226C00FB685B6A1A78FB681B681A61FB685B6A1F
:10227C005A1CFB685A62FB685B8D9BB2013B9AB29D
:10228C00FB685A85FB681B8D013B9AB2FB681A856B
:10229C007A69396AF86801F0BFFE0346002B0DD04D
:1022AC00FB681B6C042B07D1FB681B681A68FB6866
:1022BC001B6842F400721A6001231AE0FB681B8D44
:1022CC00002B94D1FB681B681A68FB681B6842F4EE
:1022DC0000721A60FB68202283F83D20FB68002204
:1022EC0083F83E20FB68002283F83C20002300E0AA
:1022FC00022318461837BD4680BD00BF02001000EF
:10230C000000FFFF80B588B000AF78600023BB6190
:10231C007B681B685B687B617B68DB6A3B617B6805
:10232C0093F83E30FB737B6893F83D30BB73FB7BBB
:10233C00102B03D0FB7B402B40F0C1807B681B68CB
:10234C009B69BB617B681B685B69FB61FB6903F084
:10235C000103002B0DD13B69B3F52A0F03D03B6968
:10236C00B3F12A4F01D1012300E00023012B00F02F
:10237C003281FB6903F00103002B0CD07B695B0AF3
:10238C0003F00103002B06D0786801F0EDFE7868AD
:10239C0000F090FD92E0FB69DB0803F00103002BD9
:1023AC0009D07B695B0A03F00103002B03D078682A
:1023BC0000F005FE82E0FB695B0803F00103002BD3
:1023CC0009D07B695B0A03F00103002B03D078680A
:1023DC0000F01EFE72E0BB699B0803F00103002BAA
:1023EC003BD07B681B685B6803F40063B3F5006F3C
:1023FC0000F0F380FB69DB0903F00103002B0FD025
:10240C007B699B0A03F00103002B09D0FB699B0835
:10241C0003F00103002B03D1786800F0E8F94DE0DC
:10242C00FB699B0803F00103002B00F0D6807B694D
:10243C005B0A03F00103002B00F0CF80BB7B212B48
:10244C0003D1786800F06FFAC7E0FB7B402B40F0BB
:10245C00C480786800F0DDFABFE07B681B685B68BD
:10246C0003F40063B3F5006F00F0B780FB699B09C0
:10247C0003F00103002B0FD07B699B0A03F00103CF
:10248C00002B09D0FB699B0803F00103002B03D13F
:10249C00786800F056FB11E0FB699B0803F0010320
:1024AC00002B00F09A807B695B0A03F00103002B80
:1024BC0000F09380786800F00CFC8EE08DE07B6877
:1024CC001B6C002B04D07B681B685B69FB6107E00D
:1024DC007B681B689B69BB617B681B685B69FB61E4
:1024EC00FB695B0803F00103002B12D07B695B0ACC
:1024FC0003F00103002B0CD07B681B6C002B03D06A
:10250C007B681B689B69BB61B969786800F0D7FF71
:10251C0066E0FB691B0903F00103002B09D07B6902
:10252C005B0A03F00103002B03D0786801F012F86A
:10253C0056E0BB7B212B02D0BB7B292B25D1FB6921
:10254C00DB0903F00103002B0FD07B699B0A03F01E
:10255C000103002B09D0FB699B0803F00103002B3E
:10256C0003D1786800F0EFFE39E0FB699B0803F0BB
:10257C000103002B33D07B695B0A03F00103002BB2
:10258C002DD0786800F01CFF29E0FB699B0903F053
:10259C000103002B0FD07B699B0A03F00103002B76
:1025AC0009D0FB699B0803F00103002B03D1786869
:1025BC0000F026FF14E0FB699B0803F00103002BDD
:1025CC000ED07B695B0A03F00103002B08D07868FE
:1025DC0000F054FF04E000BF02E000BF00E000BFC9
:1025EC002037BD4680BD80B58AB000AF78607B686F
:1025FC001B685B693B627B681B685B68FB61002343
:10260C007B627B6893F83E30FB763B6A1B0A03F0D7
:10261C000103002B16D0FB691B0A03F00103002BEE
:10262C0010D07B6A43F001037B627B681B686FF4FC
:10263C0080725A617B681B681A687B681B6842F45D
:10264C0000421A603B6A5B0A03F00103002B0ED0B8
:10265C00FB691B0A03F00103002B08D07B6A43F0D3
:10266C0002037B627B681B686FF400725A613B6AE1
:10267C009B0A03F00103002B3FD0FB691B0A03F0FC
:10268C000103002B39D0FB7EBB767B685B8D9BB244
:10269C007B617B6893F83D30FB747B681B6BFB6044
:1026AC00BB7E202B12D17B69002B0FD1FB7C212B05
:1026BC0008D0FB7C292B05D0FB7C282B06D1FB6892
:1026CC00212B03D1786801F075F816E07B681B6844
:1026DC006FF480625A617B6A43F004037B62FB7E79
:1026EC00102B02D0FB7E402B07D17B681B681A682D
:1026FC007B681B6842F400721A603B6ADB0A03F0C9
:10270C000103002B0ED0FB691B0A03F00103002B05
:10271C0008D07B6A43F008037B627B681B686FF40C
:10272C0000625A617B6A002B08D07B681A6C7B6A4A
:10273C001A437B681A64786801F0B0F800BF283738
:10274C00BD4680BD80B483B000AF786000BF0C374D
:10275C00BD4680BC704780B483B000AF786000BFCA
:10276C000C37BD4680BC704780B483B000AF786036
:10277C0000BF0C37BD4680BC704780B483B000AF3F
:10278C0078600B46FB7013463B8000BF0C37BD4690
:10279C0080BC704780B483B000AF786000BF0C374A
:1027AC00BD4680BC704780B483B000AF786000BF7A
:1027BC000C37BD4680BC704780B483B000AF7860E6
:1027CC0000BF0C37BD4680BC704780B483B000AFEF
:1027DC00786000BF0C37BD4680BC704780B483B0B6
:1027EC0000AF786000BF0C37BD4680BC704780B529
:1027FC0084B000AF78607B6893F83D30FB737B68E6
:10280C0093F83E30BB737B68DB6ABB607B681B8DC7
:10281C00002B50D1FB7B212B4DD1BB68082B1DD03D
:10282C00BB68202B1AD0BB6813F5803F16D07B6891
:10283C001B685A687B681B6822F4E0625A607B68EC
:10284C0011221A637B68002283F83E207B682022C9
:10285C0083F83D207868FEF7B1FC60E07B681B686C
:10286C005A687B681B6822F4E0625A607B681B68BC
:10287C001A687B681B6842F400721A607B6800223D
:10288C001A637B68202283F83D207B6893F83E30E6
:10289C00DBB2402B07D17B68002283F83E2078689E
:1028AC00FFF781FF3BE07B68002283F83E207868CD
:1028BC00FEF784FC33E0FB7B212B05D0BB7B402B4C
:1028CC002DD1FB7B222B2AD17B685B8D9BB2002BFD
:1028DC0008D17B681B685A687B681B6822F480628D
:1028EC005A601CE07B6893F83E30DBB2402B03D17E
:1028FC00786800F08EF812E07B685B6A1A787B6867
:10290C001B681A617B685B6A5A1C7B685A627B681D
:10291C005B8D9BB2013B9AB27B685A85FFE700BF87
:10292C001037BD4680BD80B584B000AF78607B6841
:10293C00DB6AFB607B6893F83D30DBB2212B64D102
:10294C007B685B8D9BB2002B12D07B685B6A1A781C
:10295C007B681B681A617B685B6A5A1C7B685A62CD
:10296C007B685B8D9BB2013B9AB27B685A854CE0CD
:10297C00FB68082B1DD0FB68202B1AD0FB6813F5C5
:10298C00803F16D07B681B685A687B681B6822F4F2
:10299C00E0625A607B6811221A637B68002283F81C
:1029AC003E207B68202283F83D207868FEF706FCE9
:1029BC002BE07B681B685A687B681B6822F4E0621A
:1029CC005A607B681B681A687B681B6842F400724B
:1029DC001A607B6800221A637B68202283F83D20F2
:1029EC007B6893F83E30DBB2402B07D17B6800222A
:1029FC0083F83E207868FFF7D6FE06E07B6800225D
:102A0C0083F83E207868FEF7D9FB00BF1037BD462F
:102A1C0080BD80B584B000AF78607B6893F83D30A2
:102A2C00FB737B681B6D002B1DD17B68DB6C012B52
:102A3C000BD17B689B6CDAB27B681B681A617B6874
:102A4C001B6D9A1C7B681A6577E07B689B6C9BB24C
:102A5C001B12DAB27B681B681A617B681B6D5A1CEF
:102A6C007B681A6569E07B681B6D012B0BD17B6859
:102A7C009B6CDAB27B681B681A617B681B6D5A1CF5
:102A8C007B681A6559E07B681B6D022B52D1FB7B6E
:102A9C00222B0DD17B681B681A687B681B6842F47B
:102AAC0080721A607B681B6D5A1C7B681A6544E047
:102ABC007B685B8D9BB2002B15D0FB7B212B12D13D
:102ACC007B685B6A1A787B681B681A617B685B6A37
:102ADC005A1C7B685A627B685B8D9BB2013B9AB235
:102AEC007B685A8529E07B685B8D9BB2002B24D1D7
:102AFC00FB7B212B21D17B681B685A687B681B6888
:102B0C0022F4E0625A607B681B681A687B681B6859
:102B1C0042F400721A607B6800221A637B682022E0
:102B2C0083F83D207B68002283F83E207868FFF70D
:102B3C003AFE02E07868FFF7D3FA00BF1037BD46C3
:102B4C0080BD80B584B000AF78607B6893F83D3071
:102B5C00DBB2222B40F0B9807B68DB6AFB607B68C0
:102B6C005B8D9BB2BB60BB68032B21D97B681B6858
:102B7C001A697B685B6AD2B21A707B685B6A5A1CF2
:102B8C007B685A627B685B8D9BB2013B9AB27B6817
:102B9C005A857B685B8D9BB2032B40F096807B68DB
:102BAC001B685A687B681B6822F480625A608CE050
:102BBC007B68DB6A022B7FD0BB68012B02D0BB6821
:102BCC00002B79D1786801F06FFA0346002B4CD1B9
:102BDC007B681B681A687B681B6822F480621A6029
:102BEC007B681B685A687B681B6822F4E0625A6039
:102BFC007B681B681A697B685B6AD2B21A707B6847
:102C0C005B6A5A1C7B685A627B685B8D9BB2013B8A
:102C1C009AB27B685A857B68202283F83D207B68BA
:102C2C0093F83E30DBB2402B0AD17B68002283F84C
:102C3C003E207B6800221A637868FFF7BDFD44E0F4
:102C4C007B68002283F83E20FB68082B02D0FB68CF
:102C5C00202B03D17B6800221A6302E07B681222CE
:102C6C001A637868FFF76EFD2FE07B681B685A6863
:102C7C007B681B6822F4E0625A607B681B681A69E7
:102C8C007B685B6AD2B21A707B685B6A5A1C7B6881
:102C9C005A627B685B8D9BB2013B9AB27B685A850A
:102CAC007B68202283F83D207B68002283F83E203D
:102CBC007868FFF78AFD08E07B681B685A687B68B8
:102CCC001B6822F480625A60FFE700BF1037BD46D4
:102CDC0080BD80B584B000AF78607B68DB6AFB6038
:102CEC007B685B8D9BB2042B1BD17B681B685A687D
:102CFC007B681B6822F480625A607B681B681A69C7
:102D0C007B685B6AD2B21A707B685B6A5A1C7B6800
:102D1C005A627B685B8D9BB2013B9AB27B685A8589
:102D2C00C4E07B685B8D9BB2032B29D17B681B684D
:102D3C005A687B681B6822F480625A60FB68042B1B
:102D4C000AD0FB68022B07D07B681B681A687B686B
:102D5C001B6822F480621A607B681B681A697B68A6
:102D6C005B6AD2B21A707B685B6A5A1C7B685A62C7
:102D7C007B685B8D9BB2013B9AB27B685A8595E070
:102D8C007B685B8D9BB2022B7DD1FB68012B02D043
:102D9C00FB68102B08D17B681B681A687B681B6862
:102DAC0022F480621A6016E0FB68042B02D0FB68E8
:102DBC00022B08D17B681B681A687B681B6842F47D
:102DCC0080621A6007E07B681B681A687B681B6866
:102DDC0042F400721A607B681B681A697B685B6A34
:102DEC00D2B21A707B685B6A5A1C7B685A627B6829
:102DFC005B8D9BB2013B9AB27B685A857B681B68E2
:102E0C001A697B685B6AD2B21A707B685B6A5A1C5F
:102E1C007B685A627B685B8D9BB2013B9AB27B6884
:102E2C005A857B681B685A687B681B6822F4407261
:102E3C005A607B68202283F83D207B6893F83E30F3
:102E4C00DBB2402B0AD17B68002283F83E207B68E2
:102E5C0000221A637868FFF7AFFC27E07B6800223A
:102E6C0083F83E20FB68082B02D0FB68202B03D193
:102E7C007B6800221A6302E07B6812221A6378686E
:102E8C00FFF760FC12E07B681B681A697B685B6A61
:102E9C00D2B21A707B685B6A5A1C7B685A627B6878
:102EAC005B8D9BB2013B9AB27B685A8500BF103791
:102EBC00BD4680BD80B483B000AF78607B6893F86A
:102ECC003E30DBB2402B17D17B681B6D002B09D138
:102EDC007B685B6CDBB21A467B681B6802F0FE02F7
:102EEC001A6167E07B685B6CDBB243F00103DAB21A
:102EFC007B681B681A615DE07B681B69B3F5804FCA
:102F0C0033D17B6893F83D30DBB2212B09D17B6840
:102F1C005B6CDBB21A467B681B6802F0FE021A611E
:102F2C0008E07B685B6CDBB243F00103DAB27B68D0
:102F3C001B681A617B685B6B002B04D07B685B6B36
:102F4C009B6A002B08D17B689B6B002B32D07B6873
:102F5C009B6B9B6A002B2DD07B681B685A687B6827
:102F6C001B6842F400625A6024E07B681B6D002BE6
:102F7C000ED17B685B6C9BB2DB11DBB203F00603FA
:102F8C00DBB263F00F03DAB27B681B681A6111E0E5
:102F9C007B681B6D012B0DD17B685B6C9BB2DB11CD
:102FAC00DBB203F00603DBB263F00E03DAB27B682C
:102FBC001B681A6100BF0C37BD4680BC704780B4DB
:102FCC0083B000AF78607B685B6CDAB27B681B689F
:102FDC001A617B685B6B002B04D07B685B6B9B6A14
:102FEC00002B08D17B689B6B002B0CD07B689B6BF8
:102FFC009B6A002B07D07B681B685A687B681B6830
:10300C0042F400625A6000BF0C37BD4680BC70476A
:10301C0080B491B000AF78607B6893F83E3087F84D
:10302C003F307B68DB6ABB637B681B6B7B637B68B5
:10303C0093F83D30DBB2222B40F074817B681B6D22
:10304C00002B0FD197F83F30402B0BD100233B6363
:10305C007B681B685B693B637B681B689B693B6394
:10306C003B6B6BE17B681B6D002B1DD17B681B6977
:10307C00B3F5404F18D10023FB627B681B685B697A
:10308C00FB627B681B689B69FB62FB6A7B681B6845
:10309C001A687B681B6842F480721A607B681B6D2F
:1030AC005A1C7B681A6549E17B685B8D9BB2002BCF
:1030BC0013D10023BB627B681B685B69BB627B68B6
:1030CC001B689B69BB62BB6A7B681B681A687B6860
:1030DC001B6842F400721A6020E17B685B8D9BB226
:1030EC00012B40F08A80BB6B13F5803F37D17B6896
:1030FC001B681A687B681B6822F480621A607B6804
:10310C001B685B6803F40063B3F5006F13D17B6835
:10311C001B681A687B681B6822F480621A600023A3
:10312C007B627B681B685B697B627B681B689B6945
:10313C007B627B6AF2E000233B627B681B685B6905
:10314C003B627B681B689B693B623B6A7B681B68C4
:10315C001A687B681B6842F400721A60DEE0BB6B75
:10316C00082B2ED0BB6B202B2BD07B6B122B02D1C0
:10317C00BB6B012B25D1BB6B042B0ED0BB6B022B75
:10318C000BD0BB6B102B08D07B681B681A687B6854
:10319C001B6822F480621A6007E07B681B681A685F
:1031AC007B681B6842F480621A600023FB617B68B9
:1031BC001B685B69FB617B681B689B69FB61FB6936
:1031CC00ACE07B681B681A687B681B6822F4806221
:1031DC001A600023BB617B681B685B69BB617B6801
:1031EC001B689B69BB61BB697B681B681A687B6841
:1031FC001B6842F400721A6090E07B685B8D9BB296
:10320C00022B58D1BB6B042B21D0BB6B022B1ED0D5
:10321C00BB6B102B1BD07B681B681A687B681B6808
:10322C0042F400621A6000237B617B681B685B6957
:10323C007B617B681B689B697B617B697B681B6816
:10324C001A687B681B6822F480621A6012E07B6843
:10325C001B681A687B681B6842F480621A60002342
:10326C003B617B681B685B693B617B681B689B6986
:10327C003B613B697B681B685B6803F40063B3F5D7
:10328C00006F4BD1BB6B13F5803F0BD0BB6B012B8D
:10329C0008D0BB6B082B05D0BB6B102B02D0BB6BC3
:1032AC00202B3BD17B681B685A687B681B6842F4F7
:1032BC0080525A6032E07B681B681A687B681B6816
:1032CC0042F480621A607B681B685B6803F40063DD
:1032DC00B3F5006F17D1BB6B13F5803F0BD0BB6BF5
:1032EC00012B08D0BB6B082B05D0BB6B102B02D06D
:1032FC00BB6B202B07D17B681B685A687B681B68EB
:10330C0042F480525A600023FB607B681B685B6947
:10331C00FB607B681B689B69FB60FB687B68002219
:10332C001A650BE00023BB607B681B685B69BB60A4
:10333C007B681B689B69BB60BB68FFE700BF4437B9
:10334C00BD4680BC704780B584B000AF78607B68A8
:10335C0093F83D30FB737B685B8D9BB2002B2BD0BD
:10336C007B685B6A1A787B681B681A617B685B6A8E
:10337C005A1C7B685A627B685B8D9BB2013B9AB28C
:10338C007B685A857B685B8D9BB2002B14D1FB7BD1
:10339C00292B11D17B681B685A687B681B6822F447
:1033AC0080625A607B6821221A637B68282283F82A
:1033BC003D207868FFF7CFF900BF1037BD4680BDC0
:1033CC0080B483B000AF78607B685B8D9BB2002BC0
:1033DC0011D07B685B6A1A787B681B681A617B6802
:1033EC005B6A5A1C7B685A627B685B8D9BB2013BA3
:1033FC009AB27B685A8500BF0C37BD4680BC7047BB
:10340C0080B584B000AF78607B6893F83D30FB7377
:10341C007B685B8D9BB2002B2CD07B681B681A6978
:10342C007B685B6AD2B21A707B685B6A5A1C7B68D9
:10343C005A627B685B8D9BB2013B9AB27B685A8562
:10344C007B685B8D9BB2002B14D1FB7B2A2B11D19B
:10345C007B681B685A687B681B6822F480625A6020
:10346C007B6822221A637B68282283F83D207868C7
:10347C00FFF77AF900BF1037BD4680BD80B483B02A
:10348C0000AF78607B685B8D9BB2002B12D07B68A1
:10349C001B681A697B685B6AD2B21A707B685B6ABC
:1034AC005A1C7B685A627B685B8D9BB2013B9AB25B
:1034BC007B685A8500BF0C37BD4680BC704780B511
:1034CC0084B000AF786039600023FB737B6893F89D
:1034DC003D30DBB203F02803282B27D17B681B6817
:1034EC005A687B681B6822F480625A603B689B08B0
:1034FC0003F00103002B01D10123FB733B68DB09B3
:10350C0003F00103002B03D17B68DB68BB8102E075
:10351C007B689B69BB817B68002283F83C20BA895D
:10352C00FB7B19467868FFF728F90EE00023BB6097
:10353C007B681B685B69BB607B681B689B69BB60B5
:10354C00BB687B68002283F83C2000BF1037BD4667
:10355C0080BD000080B584B000AF78607B6893F8C4
:10356C003D30FB737B681B685A687B681B6822F4D0
:10357C00E0625A600023BB607B681B685B69BB60C0
:10358C007B681B681A687B681B6842F001021A6032
:10359C00BB687B681B681A687B681B6822F48062B6
:1035AC001A607B681B685B6803F40063B3F5006FFB
:1035BC0072D1FB7B222B02D0FB7B2A2B35D17B6873
:1035CC009B6B1B685B689AB27B685A857B685B8DCA
:1035DC009BB2002B05D07B681B6C43F004027B680C
:1035EC001A647B681B685A687B681B6822F400624B
:1035FC005A607B689B6B1846FEF732FA0346012B28
:10360C0049D07B689B6B694A5A637B689B6B1846F5
:10361C00FEF7AEF90346002B3DD07B689B6B5B6BD2
:10362C007A68926B1046984735E07B685B6B1B6839
:10363C005B689AB27B685A857B685B8D9BB2002B6A
:10364C0005D07B681B6C43F004027B681A647B68B2
:10365C001B685A687B681B6822F400625A607B689E
:10366C005B6B1846FEF7FCF90346012B14D07B6804
:10367C005B6B4E4A5A637B685B6B1846FEF778F9B6
:10368C000346002B08D07B685B6B5B6B7A68526BD4
:10369C001046984700E000BF7B685B8D9BB2002B07
:1036AC003ED07B681B685B6903F00403042B12D1CA
:1036BC007B681B681A697B685B6AD2B21A707B687C
:1036CC005B6A5A1C7B685A627B685B8D9BB2013BC0
:1036DC009AB27B685A857B681B685B6903F0400370
:1036EC00402B12D17B681B681A697B685B6AD2B26B
:1036FC001A707B685B6A5A1C7B685A627B685B8DAC
:10370C009BB2013B9AB27B685A857B685B8D9BB2FE
:10371C00002B05D07B681B6C43F004027B681A6499
:10372C007B681B6C002B03D0786800F0B7F839E08D
:10373C00FB7B2A2B09D17B6800221A637B68282229
:10374C0083F83D207868FFF70FF87B6893F83D30DD
:10375C00DBB2282B11D17B68154ADA627B68002218
:10376C001A637B68202283F83D207B68002283F853
:10377C003E207868FFF70EF814E07B681B6B222B59
:10378C0002D0FB7B222B0DD17B6800221A637B6855
:10379C00202283F83D207B68002283F83E20786845
:1037AC00FEF7E2FF00BF1037BD4680BD113C00089C
:1037BC000000FFFF80B584B000AF78607B6893F8A1
:1037CC003D30FB737B68DB6ABB60BB68082B02D0A7
:1037DC00BB68202B29D1FB7B282B26D17B682E4A5A
:1037EC00DA627B681B685A687B681B6822F4E062AB
:1037FC005A607B681B686FF480625A617B681B6837
:10380C001A687B681B6822F480621A607B6800224D
:10381C001A637B68202283F83D207B68002283F8A2
:10382C003E207868FEF7B6FF31E0FB7B212B29D1D7
:10383C007B68194ADA627B6821221A637B68202232
:10384C0083F83D207B68002283F83E207B681B6850
:10385C005A687B681B6822F4E0625A607B681B68BC
:10386C006FF480625A617B681B681A687B681B68FE
:10387C0022F480621A607868FEF732FC7868FEF7F2
:10388C006AFF04E07B681B686FF480625A6100BFBA
:10389C001037BD4680BD00BF0000FFFF80B584B06F
:1038AC0000AF78607B6893F83D30FB737B6893F8CE
:1038BC003E30BB73BB7B102B02D0BB7B402B0AD1A1
:1038CC00FB7B222B07D17B681B681A687B681B6803
:1038DC0022F400621A60FB7B03F02803282B07D12B
:1038EC007B6800221A637B68282283F83D2015E050
:1038FC007B681B685B6803F40063B3F5006F0AD048
:10390C00FB7B602B07D07B68202283F83D207B68F3
:10391C00002283F83E207B6800221A637B681B68B8
:10392C005B6803F40063B3F5006F62D17B681B68BE
:10393C005A687B681B6822F400625A607B685B6B78
:10394C0093F82130DBB2012B20D07B685B6B6A4A89
:10395C005A637B685B6B1846FEF70AF80346002B2C
:10396C0000F089807B681B681A687B681B6822F0F2
:10397C0001021A607B68202283F83D207B685B6B18
:10398C005B6B7A68526B1046984774E07B689B6B54
:10399C00594A5A637B689B6B1846FDF7E9FF03464F
:1039AC00002B68D07B681B685B6903F04003402BDD
:1039BC000BD17B681B681A697B685B6AD2B21A7080
:1039CC007B685B6A5A1C7B685A627B681B681A6846
:1039DC007B681B6822F001021A607B68202283F846
:1039EC003D207B689B6B5B6B7A68926B10469847AB
:1039FC0041E07B6893F83D30DBB2602B25D17B68CE
:103A0C00202283F83D207B6800221A647B681B68A7
:103A1C005B6903F04003402B0BD17B681B681A6970
:103A2C007B685B6AD2B21A707B685B6A5A1C7B68D3
:103A3C005A627B681B681A687B681B6822F001025B
:103A4C001A607868FEF7CAFE15E07B681B685B6934
:103A5C0003F04003402B0BD17B681B681A697B6811
:103A6C005B6AD2B21A707B685B6A5A1C7B685A62BA
:103A7C007868FEF7AAFE7B681B6CBB60BB6803F022
:103A8C000103002B0ED1BB6803F00203002B09D1FC
:103A9C00BB6803F00403002B04D1BB6803F00803DC
:103AAC00002B07D07B681B685A687B681B6822F464
:103ABC00E0625A607B6893F83D30FB737B681B6C4B
:103ACC0003F00403042B13D1FB7B282B10D17B6850
:103ADC000A4ADA627B6800221A637B68202283F828
:103AEC003D207B68002283F83E207868FEF752FE6A
:103AFC0000BF1037BD4680BD113C00080000FFFF21
:103B0C0080B588B002AFF8607A603B600B467B8171
:103B1C00FB68DB6A7B617B69082B06D07B69012B18
:103B2C0003D07B6913F5803F08D1FB681B681A68CA
:103B3C00FB681B6842F480721A600BE0FB681B6B1D
:103B4C00122B07D1FB681B681A68FB681B6842F4D0
:103B5C0080721A603B6800937B6800224FF0011161
:103B6C00F86800F0F7F80346002B0DD0FB681B68D3
:103B7C001B6803F48073B3F5807F03D1FB684FF4AB
:103B8C0000721A64032335E0FB681B69B3F5804FA0
:103B9C0008D17B89DBB21A46FB681B6802F0FE0277
:103BAC001A611BE07B89DB11DBB203F00603DBB28D
:103BBC0063F00F03DAB2FB681B681A613B687A6822
:103BCC000E49F86800F040F90346002B01D00123A0
:103BDC0010E07B89DAB2FB681B681A613B687A6873
:103BEC000749F86800F030F90346002B01D0012397
:103BFC0000E0002318461837BD4680BD08000100C0
:103C0C000200010080B586B000AF78600023FB6035
:103C1C007B685B6A7B617B6993F83D30FB744B4B33
:103C2C001B68DB084A4AA2FB03231A0A13469B00B3
:103C3C001344DA00D31AFB60FB68002B06D17B69B6
:103C4C001B6C43F020027B691A640AE0FB68013BA1
:103C5C00FB607B691B681B6803F40073B3F5007F82
:103C6C00EAD07B695B6B002B03D07B695B6B00221A
:103C7C009A627B699B6B002B03D07B699B6B002248
:103C8C009A627B691B681A687B691B6822F48062E4
:103C9C001A607B6900225A857B695B6B002B03D011
:103CAC007B695B6B00225A637B699B6B002B03D097
:103CBC007B699B6B00225A637B691B681A687B6962
:103CCC001B6822F001021A607B6993F83D30DBB26D
:103CDC00602B0ED17B69202283F83D207B6900226A
:103CEC0083F83E207B6900221A647869FEF776FD22
:103CFC0027E0FB7C03F02803282B17D17B691B687A
:103D0C001A687B691B6842F001021A607B691B68A8
:103D1C001A687B691B6842F480621A607B69002216
:103D2C001A637B69282283F83D2007E07B692022F7
:103D3C0083F83D207B69002283F83E207869FEF7EA
:103D4C0044FD00BF1837BD4680BD00BF28000020D1
:103D5C0089B5F81480B584B000AFF860B9603B60E9
:103D6C001346FB7148E03B68B3F1FF3F44D0FDF7CD
:103D7C00C3FC0246BB69D31A3A689A4202D33B6829
:103D8C00002B39D1BB681B0CDBB2012B0DD1FB68AE
:103D9C001B685B69DA43BB6813409BB2002B0CBFFA
:103DAC0001230023DBB21A460CE0FB681B689B69FD
:103DBC00DA43BB6813409BB2002B0CBF01230023DA
:103DCC00DBB21A46FB799A4216D1FB6800221A63C1
:103DDC00FB68202283F83D20FB68002283F83E20FC
:103DEC00FB681B6C43F02002FB681A64FB68002222
:103DFC0083F83C20012323E0BB681B0CDBB2012BB6
:103E0C000DD1FB681B685B69DA43BB6813409BB23E
:103E1C00002B0CBF01230023DBB21A460CE0FB681D
:103E2C001B689B69DA43BB6813409BB2002B0CBF29
:103E3C0001230023DBB21A46FB799A4293D000236C
:103E4C0018461037BD4680BD80B584B000AFF86011
:103E5C00B9607A603B6071E0FB681B685B6903F4D6
:103E6C008063B3F5806F23D1FB681B681A68FB680D
:103E7C001B6842F400721A60FB681B686FF4806266
:103E8C005A61FB6800221A63FB68202283F83D20EC
:103E9C00FB68002283F83E20FB681B6C43F0040295
:103EAC00FB681A64FB68002283F83C20012367E05E
:103EBC007B68B3F1FF3F41D0FDF71EFC02463B6827
:103ECC00D31A7A689A4202D37B68002B36D1BB682E
:103EDC001B0CDBB2012B0CD1FB681B685B69DA4352
:103EEC00BB6813409BB2002B14BF01230023DBB231
:103EFC000BE0FB681B689B69DA43BB6813409BB201
:103F0C00002B14BF01230023DBB2002B16D0FB685F
:103F1C0000221A63FB68202283F83D20FB680022F4
:103F2C0083F83E20FB681B6C43F02002FB681A648C
:103F3C00FB68002283F83C20012321E0BB681B0CAA
:103F4C00DBB2012B0CD1FB681B685B69DA43BB68E5
:103F5C0013409BB2002B14BF01230023DBB20BE0F8
:103F6C00FB681B689B69DA43BB6813409BB2002B50
:103F7C0014BF01230023DBB2002B7FF46DAF0023B1
:103F8C0018461037BD4680BD80B584B000AFF860D0
:103F9C00B9607A6034E0F86800F0B8F80346002B9A
:103FAC0001D0012334E0BB68B3F1FF3F28D0FDF70B
:103FBC00A3FB02467B68D31ABA689A4202D3BB6849
:103FCC00002B1DD1FB681B685B6903F08003802B01
:103FDC0016D0FB6800221A63FB68202283F83D2070
:103FEC00FB68002283F83E20FB681B6C43F0200228
:103FFC00FB681A64FB68002283F83C20012307E06D
:10400C00FB681B685B6903F08003802BC3D1002322
:10401C0018461037BD4680BD80B584B000AFF8603F
:10402C00B9607A6034E0F86800F070F80346002B51
:10403C0001D0012334E0BB68B3F1FF3F28D0FDF77A
:10404C005BFB02467B68D31ABA689A4202D3BB6800
:10405C00002B1DD1FB681B685B6903F00403042B68
:10406C0016D0FB6800221A63FB68202283F83D20DF
:10407C00FB68002283F83E20FB681B6C43F0200297
:10408C00FB681A64FB68002283F83C20012307E0DC
:10409C00FB681B685B6903F00403042BC3D100238A
:1040AC0018461037BD4680BD80B485B000AF78602F
:1040BC000023FB60134B1B68DB08134AA2FB032392
:1040CC001A0A13469B001344FB60FB68013BFB6020
:1040DC00FB68002B07D17B681B6C43F020027B68CC
:1040EC001A64012308E07B681B681B6803F40073E7
:1040FC00B3F5007FE9D0002318461437BD4680BCC9
:10410C00704700BF2800002089B5F81480B483B034
:10411C0000AF78607B681B685B6903F48063B3F560
:10412C00806F1BD17B681B686FF480625A617B685F
:10413C0000221A637B68202283F83D207B680022D2
:10414C0083F83E207B681B6C43F004027B681A6486
:10415C007B68002283F83C20012300E000231846F2
:10416C000C37BD4680BC704780B483B000AF78601C
:10417C007B68DB6AB3F52A0F03D17B680122DA6214
:10418C0007E07B68DB6AB3F12A4F02D17B68082217
:10419C00DA6200BF0C37BD4680BC704780B586B074
:1041AC0000AF78607B68002B01D1012372E27B6841
:1041BC001B6803F00103002B00F08780924B5B68B7
:1041CC0003F00C03042B0CD08F4B5B6803F00C0337
:1041DC00082B12D18C4B5B6803F48033B3F5803F12
:1041EC000BD1894B1B6803F40033002B6CD07B681C
:1041FC005B68002B68D101234CE27B685B68B3F5EC
:10420C00803F06D1804B1B687F4A43F48033136098
:10421C002EE07B685B68002B0CD17B4B1B687A4AC9
:10422C0023F480331360784B1B68774A23F4802384
:10423C0013601DE07B685B68B3F5A02F0CD1724B4B
:10424C001B68714A43F4802313606F4B1B686E4AE2
:10425C0043F4803313600BE06B4B1B686A4A23F406
:10426C0080331360684B1B68674A23F48023136008
:10427C007B685B68002B13D0FDF73EFA386108E0D1
:10428C00FDF73AFA02463B69D31A642B01D9032392
:10429C0000E25D4B1B6803F40033002BF0D014E0FC
:1042AC00FDF72AFA386108E0FDF726FA02463B6969
:1042BC00D31A642B01D90323ECE1534B1B6803F491
:1042CC000033002BF0D100E000BF7B681B6803F0CB
:1042DC000203002B63D04C4B5B6803F00C03002BE8
:1042EC000BD0494B5B6803F00C03082B1CD1464BDD
:1042FC005B6803F48033002B16D1434B1B6803F02F
:10430C000203002B05D07B681B69012B01D0012314
:10431C00C0E13D4B1B6823F0F8027B685B69DB0056
:10432C00394913430B603AE07B681B69002B20D0A2
:10433C00364B01221A60FDF7DFF9386108E0FDF712
:10434C00DBF902463B69D31A022B01D90323A1E105
:10435C002D4B1B6803F00203002BF0D02A4B1B687B
:10436C0023F0F8027B685B69DB00274913430B6081
:10437C0015E0264B00221A60FDF7BEF9386108E003
:10438C00FDF7BAF902463B69D31A022B01D9032374
:10439C0080E11D4B1B6803F00203002BF0D17B68FE
:1043AC001B6803F00803002B3AD07B689B69002B39
:1043BC0019D0174B01221A60FDF79EF9386108E0FD
:1043CC00FDF79AF902463B69D31A022B01D9032354
:1043DC0060E10D4B5B6A03F00203002BF0D001206F
:1043EC0000F0BAFA1CE00A4B00221A60FDF784F9BF
:1043FC0038610FE0FDF780F902463B69D31A022BB6
:10440C0008D9032346E100BF0010024000004242DD
:10441C0080044242924B5B6A03F00203002BE9D109
:10442C007B681B6803F00403002B00F0A6800023BC
:10443C00FB758B4BDB6903F08053002B0DD1884B44
:10444C00DB69874A43F08053D361854BDB6903F00A
:10445C008053BB60BB680123FB75824B1B6803F464
:10446C008073002B18D17F4B1B687E4A43F48073FA
:10447C001360FDF741F9386108E0FDF73DF902469C
:10448C003B69D31A642B01D9032303E1754B1B68D9
:10449C0003F48073002BF0D07B68DB68012B06D112
:1044AC006F4B1B6A6E4A43F0010313622DE07B686D
:1044BC00DB68002B0CD16A4B1B6A694A23F00103A1
:1044CC001362674B1B6A664A23F0040313621CE0F9
:1044DC007B68DB68052B0CD1614B1B6A604A43F08F
:1044EC00040313625E4B1B6A5D4A43F001031362C3
:1044FC000BE05B4B1B6A5A4A23F001031362584BC7
:10450C001B6A574A23F0040313627B68DB68002B99
:10451C0015D0FDF7F1F838610AE0FDF7EDF8024629
:10452C003B69D31A41F28832934201D90323B1E09B
:10453C004B4B1B6A03F00203002BEED014E0FDF78B
:10454C00DBF838610AE0FDF7D7F802463B69D31A6D
:10455C0041F28832934201D903239BE0404B1B6A02
:10456C0003F00203002BEED1FB7D012B05D13C4B5C
:10457C00DB693B4A23F08053D3617B68DB69002BFA
:10458C0000F08780364B5B6803F00C03082B61D07E
:10459C007B68DB69022B46D1334B00221A60FDF796
:1045AC00ABF8386108E0FDF7A7F802463B69D31A6F
:1045BC00022B01D903236DE0294B1B6803F0007318
:1045CC00002BF0D17B681B6AB3F5803F08D1244BDC
:1045DC005B6823F400327B689B68214913434B6072
:1045EC001F4B5B6823F474127B68196A7B685B6AE7
:1045FC000B431B4913434B601B4B01221A60FDF705
:10460C007BF8386108E0FDF777F802463B69D31A6E
:10461C00022B01D903233DE0114B1B6803F00073FF
:10462C00002BF0D035E0104B00221A60FDF764F837
:10463C00386108E0FDF760F802463B69D31A022B9B
:10464C0001D9032326E0064B1B6803F00073002BF3
:10465C00F0D11EE07B68DB69012B07D1012319E047
:10466C000010024000700040600042420B4B5B683F
:10467C00FB60FB6803F480327B681B6A9A4206D1AC
:10468C00FB6803F470127B685B6A9A4201D00123C9
:10469C0000E0002318461837BD4680BD00100240CC
:1046AC0080B584B000AF786039607B68002B01D195
:1046BC000123D0E06A4B1B6803F007033A689A4267
:1046CC0010D9674B1B6823F0070265493B681343FD
:1046DC000B60634B1B6803F007033A689A4201D0E6
:1046EC000123B8E07B681B6803F00203002B20D089
:1046FC007B681B6803F00403002B05D0594B5B68E7
:10470C00584A43F4E06353607B681B6803F008036A
:10471C00002B05D0534B5B68524A43F460535360F3
:10472C00504B5B6823F0F0027B689B684D49134348
:10473C004B607B681B6803F00103002B40D07B6847
:10474C005B68012B07D1474B1B6803F40033002B2C
:10475C0015D101237FE07B685B68022B07D1414BAD
:10476C001B6803F00073002B09D1012373E03D4B50
:10477C001B6803F00203002B01D101236BE0394BC2
:10478C005B6823F003027B685B68364913434B601C
:10479C00FCF7B2FFF8600AE0FCF7AEFF0246FB68DC
:1047AC00D31A41F28832934201D9032353E02D4BA3
:1047BC005B6803F00C027B685B689B009A42EBD150
:1047CC00274B1B6803F007033A689A4210D2244B1C
:1047DC001B6823F0070222493B6813430B60204BF4
:1047EC001B6803F007033A689A4201D0012332E0B8
:1047FC007B681B6803F00403002B08D0194B5B6823
:10480C0023F4E0627B68DB68164913434B607B68DA
:10481C001B6803F00803002B09D0124B5B6823F4D0
:10482C0060527B681B69DB000E4913434B6000F040
:10483C0021F802460B4B5B681B0903F00F030A4976
:10484C00CB5C22FA03F3094A1360094B1B68184628
:10485C00FCF710FF002318461037BD4680BD00BF83
:10486C000020024000100240705B0008280000206D
:10487C003000002080B487B000AF0023FB60002321
:10488C00BB6000237B6100237B6000233B611E4BDC
:10489C005B68FB60FB6803F00C03042B02D0082B55
:1048AC0003D027E0194B3B6127E0FB689B0C03F01E
:1048BC000F03174AD35C7B60FB6803F48033002B37
:1048CC0010D0114B5B685B0C03F00103114AD35CF5
:1048DC00BB607B680D4A03FB02F2BB68B2FBF3F3CF
:1048EC007B6104E07B680C4A02FB03F37B617B6910
:1048FC003B6102E0054B3B6100BF3B6918461C372E
:10490C00BD4680BC704700BF0010024000127A0008
:10491C00885B0008985B000800093D0080B400AF7C
:10492C00024B1B681846BD4680BC7047280000200F
:10493C0080B500AFFFF7F2FF0246054B5B681B0A20
:10494C0003F007030349CB5C22FA03F3184680BD3E
:10495C0000100240805B000880B485B000AF786026
:10496C000A4B1B680A4AA2FB03235B0A7A6802FB08
:10497C0003F3FB6000BFFB685A1EFA60002BF9D1F1
:10498C0000BF00BF1437BD4680BC70472800002014
:10499C00D34D621080B582B000AF78607B68002B7D
:1049AC0001D1012341E07B6893F83D30DBB2002B51
:1049BC0006D17B68002283F83C207868FCF79EFCCB
:1049CC007B68022283F83D207B681A687B6804337D
:1049DC001946104600F05CFA7B68012283F84620E9
:1049EC007B68012283F83E207B68012283F83F20FC
:1049FC007B68012283F840207B68012283F84120E8
:104A0C007B68012283F842207B68012283F84320D3
:104A1C007B68012283F844207B68012283F84520BF
:104A2C007B68012283F83D20002318460837BD46D9
:104A3C0080BD000080B485B000AF78607B6893F8CF
:104A4C003D30DBB2012B01D001233AE07B6802221E
:104A5C0083F83D207B681B68DA687B681B6842F032
:104A6C000102DA607B681B68184A93420ED07B689F
:104A7C001B68B3F1804F09D07B681B68144A9342C2
:104A8C0004D07B681B68134A934211D17B681B6866
:104A9C009B6803F00703FB60FB68062B10D07B6858
:104AAC001B681A687B681B6842F001021A6007E0F9
:104ABC007B681B681A687B681B6842F001021A60ED
:104ACC00002318461437BD4680BC7047002C0140AB
:104ADC00000400400008004080B584B000AF78604E
:104AEC007B681B68DB68FB607B681B681B69BB60B1
:104AFC00BB6803F00203002B20D0FB6803F0020319
:104B0C00002B1BD07B681B686FF002021A617B685C
:104B1C0001221A777B681B689B6903F00303002B47
:104B2C0003D0786800F098F905E0786800F08BF90C
:104B3C00786800F09AF97B6800221A77BB6803F05A
:104B4C000403002B20D0FB6803F00403002B1BD0C4
:104B5C007B681B686FF004021A617B6802221A776B
:104B6C007B681B689B6903F44073002B03D0786847
:104B7C0000F072F905E0786800F065F9786800F0EB
:104B8C0074F97B6800221A77BB6803F00803002BCA
:104B9C0020D0FB6803F00803002B1BD07B681B683C
:104BAC006FF008021A617B6804221A777B681B6815
:104BBC00DB6903F00303002B03D0786800F04CF999
:104BCC0005E0786800F03FF9786800F04EF97B68F2
:104BDC0000221A77BB6803F01003002B20D0FB686F
:104BEC0003F01003002B1BD07B681B686FF01002C6
:104BFC001A617B6808221A777B681B68DB6903F4EF
:104C0C004073002B03D0786800F026F905E0786833
:104C1C0000F019F9786800F028F97B6800221A77FF
:104C2C00BB6803F00103002B0CD0FB6803F00103FD
:104C3C00002B07D07B681B686FF001021A61786843
:104C4C00FCF7B0FABB6803F08003002B0CD0FB68B8
:104C5C0003F08003002B07D07B681B686FF0800289
:104C6C001A61786800F07FFABB6803F04003002BF0
:104C7C000CD0FB6803F04003002B07D07B681B684B
:104C8C006FF040021A61786800F0F8F8BB6803F026
:104C9C002003002B0CD0FB6803F02003002B07D063
:104CAC007B681B686FF020021A61786800F052FA7A
:104CBC0000BF1037BD4680BD80B584B000AF7860B2
:104CCC0039600023FB737B6893F83C30012B01D1D6
:104CDC000223B4E07B68012283F83C207B6802222B
:104CEC0083F83D207B681B689B68BB60BB6823F026
:104CFC007703BB60BB6823F47F43BB607B681B6896
:104D0C00BA689A603B681B68B3F5005F3ED0B3F598
:104D1C00005F00F28780B3F5805F00F08680B3F50A
:104D2C00805F7FD8702B1AD0702B7BD8602B50D023
:104D3C00602B77D8502B3CD0502B73D8402B58D0AD
:104D4C00402B6FD8302B64D0302B6BD8202B60D0FD
:104D5C00202B67D8002B5CD0102B5AD062E07B68DC
:104D6C0018683B6899683B685A683B68DB6800F0D8
:104D7C0074F97B681B689B68BB60BB6843F0770366
:104D8C00BB607B681B68BA689A604FE07B681868E8
:104D9C003B6899683B685A683B68DB6800F05DF9D2
:104DAC007B681B689A687B681B6842F480429A6037
:104DBC003CE07B6818683B6859683B68DB681A46BE
:104DCC0000F0D4F87B681B685021184600F02BF9D2
:104DDC002CE07B6818683B6859683B68DB681A46AE
:104DEC0000F0F2F87B681B686021184600F01BF994
:104DFC001CE07B6818683B6859683B68DB681A469E
:104E0C0000F0B4F87B681B684021184600F00BF9E1
:104E1C000CE07B681A683B681B681946104600F06A
:104E2C0002F903E00123FB7300E000BF7B68012261
:104E3C0083F83D207B68002283F83C20FB7B1846DE
:104E4C001037BD4680BD80B483B000AF786000BF22
:104E5C000C37BD4680BC704780B483B000AF78601F
:104E6C0000BF0C37BD4680BC704780B483B000AF28
:104E7C00786000BF0C37BD4680BC704780B483B0EF
:104E8C0000AF786000BF0C37BD4680BC7047000097
:104E9C0080B485B000AF786039607B681B68FB60BC
:104EAC007B682F4A93420BD07B68B3F1804F07D0BD
:104EBC007B682C4A934203D07B682B4A934208D1DF
:104ECC00FB6823F07003FB603B685B68FA68134374
:104EDC00FB607B68224A93420BD07B68B3F1804F16
:104EEC0007D07B681F4A934203D07B681E4A9342CB
:104EFC0008D1FB6823F44073FB603B68DB68FA68FD
:104F0C001343FB60FB6823F080023B685B6913432F
:104F1C00FB607B68FA681A603B689A687B68DA62A7
:104F2C003B681A687B689A627B680D4A934203D18E
:104F3C003B681A697B681A637B6801225A617B683B
:104F4C001B6903F00103002B05D07B681B6923F060
:104F5C0001027B681A6100BF1437BD4680BC7047E4
:104F6C00002C0140000400400008004080B487B0D1
:104F7C0000AFF860B9607A60FB681B6A7B61FB6804
:104F8C001B6A23F00102FB681A62FB689B693B6198
:104F9C003B6923F0F0033B617B681B013A691343C7
:104FAC003B617B6923F00A037B617A69BB6813431D
:104FBC007B61FB683A699A61FB687A691A6200BF87
:104FCC001C37BD4680BC704780B487B000AFF8601A
:104FDC00B9607A60FB681B6A7B61FB681B6A23F013
:104FEC001002FB681A62FB689B693B613B6923F406
:104FFC0070433B617B681B033A6913433B617B69DC
:10500C0023F0A0037B61BB681B017A6913437B61AE
:10501C00FB683A699A61FB687A691A6200BF1C37AF
:10502C00BD4680BC704780B485B000AF78603960F5
:10503C007B689B68FB60FB6823F07003FB603A683D
:10504C00FB68134343F00703FB607B68FA689A60C4
:10505C0000BF1437BD4680BC704780B487B000AF2A
:10506C00F860B9607A603B60FB689B687B617B6928
:10507C0023F47F437B613B681A027B681A43BB684D
:10508C0013437A6913437B61FB687A699A6000BFAA
:10509C001C37BD4680BC704780B485B000AF7860CB
:1050AC0039607B6893F83C30012B01D1022346E038
:1050BC007B68012283F83C207B68022283F83D2028
:1050CC007B681B685B68FB607B681B689B68BB60CC
:1050DC00FB6823F07003FB603B681B68FA681343A2
:1050EC00FB607B681B68FA685A607B681B68164A11
:1050FC0093420ED07B681B68B3F1804F09D07B685C
:10510C001B68124A934204D07B681B68104A934276
:10511C000CD1BB6823F08003BB603B685B68BA684A
:10512C001343BB607B681B68BA689A607B6801227A
:10513C0083F83D207B68002283F83C20002318462E
:10514C001437BD4680BC7047002C01400004004061
:10515C000008004080B483B000AF786000BF0C370B
:10516C00BD4680BC704780B483B000AF786000BF90
:10517C000C37BD4680BC7047014B1868704700BFA8
:10518C003800002070B500260C4D0D4C641BA4108B
:10519C00A64209D100F09CFC00260A4D0A4C641B67
:1051AC00A410A64205D170BD55F8043B98470136B2
:1051BC00EEE755F8043B98470136F2E7D05B000860
:1051CC00D05B0008D05B0008D45B000803460244A7
:1051DC00934200D1704703F8011BF9E70EB46FF04E
:1051EC00004100B59CB01DAB029006900791049154
:1051FC000848094953F8042B0591006802A901934A
:10520C0000F068F80022029B1A701CB05DF804EBE9
:10521C0003B07047380000200802FFFF2DE9F0476B
:10522C008E6882469E420C4690461F4638D88A8924
:10523C0012F4906F32D0256809690133A5EB01098E
:10524C0065694B4405EB450505EBD5756D109D4225
:10525C0038BF1D46530531D5294600F06FFB064675
:10526C0050B90C234FF0FF30CAF80030A38943F03B
:10527C004003A381BDE8F0874A46216900F0CEFACD
:10528C00A38923F4906343F08003A38126614E44E9
:10529C0026603E466561A5EB0905A560BE4200D9B6
:1052AC003E4632464146206800F0C6FAA36800200C
:1052BC009B1BA360236833442360DBE72A4600F082
:1052CC00B1FB06460028E1D15046216900F0CEFA28
:1052DC00C7E700002DE9F04F98468B8907461B065F
:1052EC000D4614469DB00ED50B6963B9402100F0F4
:1052FC0025FB2860286120B90C233B604FF0FF3060
:10530C00D1E040236B610023099320238DF82930D1
:10531C0030234FF00109CDF80C80DFF8A4818DF813
:10532C002A3023469A4613F8012B0AB1252AF9D1C3
:10533C00BAEB040B0BD05B46224629463846FFF7E6
:10534C006DFF013000F0AA80099A5A4409929AF82C
:10535C000030002B00F0A28000234FF0FF32CDE98B
:10536C0005230AF1010A049307938DF853301A931D
:10537C005446052214F8011B514800F041FA049AD6
:10538C00D8B9D00644BF20238DF85330110744BF41
:10539C002B238DF853309AF800302A2B15D0544615
:1053AC0000204FF00A0C079A214611F8013B303BC4
:1053BC00092B4ED9B0B1079214E0A0EB080309FAFF
:1053CC0003F31343A2460493D2E7039B191D1B68F6
:1053DC000391002BBBBF5B4242F002020793079381
:1053EC00B8BF049223782E2B0CD163782A2B35D19D
:1053FC00039B02341A1D1B680392002BB8BF4FF09D
:10540C00FF330593DFF8BCA003225046217800F04F
:10541C00F7F940B14023A0EB0A0003FA00F0049B1B
:10542C0001340343049314F8011B062226488DF81B
:10543C00281000F0E5F9002838D0244B1BBB039B47
:10544C00073323F0070308330393099B3344099371
:10545C0067E70C4601200CFB0232A5E700234FF056
:10546C000A0C194601340593204610F8012B303AEA
:10547C00092A03D9002BC5D00591C3E704460123A3
:10548C000CFB0121F0E703AB00932A463846104B86
:10549C0004A9AFF30080421C0646D6D1AB895B064B
:1054AC003FF52CAF09981DB0BDE8F08F03AB00930E
:1054BC002A463846064B04A900F07CF8EBE700BFFF
:1054CC009A5B0008A05B0008A45B000800000000C9
:1054DC00295200082DE9F047164699468A680B694F
:1054EC0007469342B8BF1346336091F843200C46ED
:1054FC00DDF820800AB1013333602368990642BF7E
:10550C00336802333360256815F0060506D104F1C3
:10551C00190AE36832689B1AAB4228DC94F84320E2
:10552C00131E226818BF012392062DD44946384613
:10553C0004F14302C047013020D02368E56803F032
:10554C000603042B18BF002532684FF00006A36831
:10555C0008BFAD1A226908BF25EAE5759342C4BF9E
:10556C009B1AED181A34B5421AD1002008E0012319
:10557C00524649463846C047013003D14FF0FF3000
:10558C00BDE8F0870135C4E73020E11881F843000D
:10559C005A1C94F845102244023382F84310C5E794
:1055AC000123224649463846C0470130E6D0013631
:1055BC00D9E700002DE9FF470F7E9146782F8046F2
:1055CC000C469A460C9D01F1430207D8622F0AD86B
:1055DC00002F00F0D980582F00F0A48004F1420570
:1055EC0084F842703AE0A7F16303152BF6D801A1B9
:1055FC0051F823F0595600086D560008E95500087B
:10560C00E9550008E9550008E95500086D560008F1
:10561C00E9550008E9550008E9550008E955000866
:10562C007B5700089D5600085D570008E955000897
:10563C00E95500089D570008E95500089D560008DB
:10564C00E9550008E9550008655700082B681A1D34
:10565C001B682A6004F1420584F842300123A4E05F
:10566C0020682968060601F104030AD50E682B6030
:10567C00002E03DA2D23764284F843300A235E4849
:10568C0019E00E6810F0400F2B6018BF36B2EFE730
:10569C002B682068191D2960010601D51E6802E0DF
:1056AC004606FBD51E886F2F0CBF08230A235248D1
:1056BC00002184F843106568002DA8BF2168A560FF
:1056CC00A4BF21F0040121600EB9002D4DD0154668
:1056DC00B6FBF3F103FB1167C75D05F8017D374697
:1056EC00BB420E46F4D9082B0BD12368DE0708D534
:1056FC00236961689942DEBF302305F8013C05F14E
:10570C00FF35521B22614B4621464046CDF800A086
:10571C0003AAFFF7DFFE01304CD14FF0FF3004B08D
:10572C00BDE8F087344881F845702968236851F842
:10573C00046B29601D0614D5DF0744BF43F020031A
:10574C0023601EB9236823F0200323601023AFE7E6
:10575C00236843F0200323607823284884F84530DD
:10576C00E3E7590648BFB6B2E6E71546BBE72B6838
:10577C002668181D6169286035061B6801D51960FB
:10578C0002E07006FBD51980002315462361BAE7A9
:10579C002B6800211A1D2A601D686268284600F0DB
:1057AC002FF808B1401B606063682361002384F804
:1057BC004330A8E72A46494640462369D047013082
:1057CC00ABD023689B0713D4E068039B9842B8BF07
:1057DC001846A4E70123324649464046D0470130DB
:1057EC009BD00135E36803995B1AAB42F2DCEBE723
:1057FC00002504F11906F5E7AB5B0008BC5B00085B
:10580C00034610B5C9B202449342184601D1002098
:10581C0003E0047801338C42F6D110BD0A44914266
:10582C0000F1FF3300D1704710B511F8014B9142D4
:10583C0003F8014FF9D110BD884210B501EB0204F9
:10584C0002D98442234607D8431EA14208D011F83E
:10585C00012B03F8012FF8E7014602448A4200D1DC
:10586C0010BD13F8014D02F8014DF7E738B50546A8
:10587C00002940D051F8043C0C1F002BB8BFE41891
:10588C0000F010F91C4A136833B9636014602846A1
:10589C00BDE8384000F00CB9A34208D920682118A3
:1058AC008B4201BF19685B6809182160EDE71A4645
:1058BC005B680BB1A342FAD911685018A0420BD106
:1058CC0020680144501883421160E0D118685B686D
:1058DC00014411605360DAE702D90C232B60D6E740
:1058EC00206821188B4201BF19685B680918216078
:1058FC0063605460CBE738BD1402002070B50E4EC7
:10590C000C463168054611B900F0BCF830602146F0
:10591C00284600F0B7F8431C0AD0C41C24F003043A
:10592C00A04207D0211A284600F0ACF8013001D172
:10593C004FF0FF34204670BD180200202DE9F041D5
:10594C00CD1C25F0030508350C2D38BF0C25002D7A
:10595C00074601DBA94205D90C2300263B603046E3
:10596C00BDE8F0812E4E00F09DF833681C4634BB28
:10597C0029463846FFF7C2FF431C04464DD1346814
:10598C002646002E40D123683146384604EB0308E6
:10599C0000F078F880453AD1216803356D1A25F06E
:1059AC00030508350C2D38BF0C2538462946FFF762
:1059BC00A5FF01302BD023682B4423600EE0226816
:1059CC00521B1ED40B2A16D96119A342256018BF8D
:1059DC005960636808BF316062514B60384604F10E
:1059EC000B0600F065F826F00706231DF21AB6D058
:1059FC009B1BA350B3E76268A3420CBF32605A6092
:105A0C00ECE723466468B2E734467668B9E70C23C2
:105A1C0038463B6000F04CF8A1E72560DEE700BF9C
:105A2C00140200202DE9F041804614460E4621B99F
:105A3C001146BDE8F041FFF781BF2AB9FFF716FF09
:105A4C0025462846BDE8F08100F038F88442074628
:105A5C0002D8B4EB500F12D821464046FFF76EFF28
:105A6C0005460028EDD0BC422246314628BF3A46B6
:105A7C00FFF7D4FE31464046FFF7F8FEE1E7354626
:105A8C00DFE7000038B50023054D044608462B60BF
:105A9C00FBF7A6FC431C02D12B6803B1236038BD75
:105AAC001C020020014800F011B800BF20020020A9
:105ABC00014800F00CB800BF2002002051F8043C53
:105ACC00181F002BBCBF0B58C0187047704770478D
